{
  "contractName": "cryptomillionsGame002",
  "abi": [
    {
      "constant": true,
      "inputs": [
        {
          "name": "",
          "type": "uint256"
        }
      ],
      "name": "beneficiaryList",
      "outputs": [
        {
          "name": "",
          "type": "address"
        }
      ],
      "payable": false,
      "stateMutability": "view",
      "type": "function"
    },
    {
      "inputs": [],
      "payable": false,
      "stateMutability": "nonpayable",
      "type": "constructor"
    },
    {
      "anonymous": false,
      "inputs": [
        {
          "indexed": false,
          "name": "userAccount",
          "type": "address"
        },
        {
          "indexed": false,
          "name": "block_number",
          "type": "uint256"
        },
        {
          "indexed": false,
          "name": "block_hash",
          "type": "bytes32"
        }
      ],
      "name": "RegisterEvent",
      "type": "event"
    },
    {
      "anonymous": false,
      "inputs": [
        {
          "indexed": false,
          "name": "userAccount",
          "type": "address"
        },
        {
          "indexed": false,
          "name": "block_number",
          "type": "uint256"
        },
        {
          "indexed": false,
          "name": "block_hash",
          "type": "bytes32"
        }
      ],
      "name": "UpdateTicketAmountEvent",
      "type": "event"
    },
    {
      "constant": false,
      "inputs": [
        {
          "name": "walletUser",
          "type": "address"
        },
        {
          "name": "walletFoundation",
          "type": "address"
        },
        {
          "name": "walletAdministration",
          "type": "address"
        },
        {
          "name": "walletBag",
          "type": "address"
        },
        {
          "name": "numbers",
          "type": "int256[]"
        },
        {
          "name": "total",
          "type": "string"
        },
        {
          "name": "ticketNumber",
          "type": "uint256"
        },
        {
          "name": "amount_to_foundation",
          "type": "string"
        },
        {
          "name": "percentFoundation",
          "type": "uint256"
        },
        {
          "name": "amount_to_administration",
          "type": "string"
        },
        {
          "name": "percentAdministration",
          "type": "uint256"
        },
        {
          "name": "amount_to_bag",
          "type": "string"
        },
        {
          "name": "percentBag",
          "type": "uint256"
        },
        {
          "name": "id_sorteo",
          "type": "int256"
        },
        {
          "name": "id_game",
          "type": "uint256"
        },
        {
          "name": "game_name",
          "type": "string"
        }
      ],
      "name": "registerBuyTicket",
      "outputs": [],
      "payable": true,
      "stateMutability": "payable",
      "type": "function"
    },
    {
      "constant": false,
      "inputs": [
        {
          "name": "_manager",
          "type": "address"
        }
      ],
      "name": "setManager",
      "outputs": [],
      "payable": false,
      "stateMutability": "nonpayable",
      "type": "function"
    },
    {
      "constant": true,
      "inputs": [
        {
          "name": "id_sorteo",
          "type": "int256"
        }
      ],
      "name": "getAddressByIdSorteo",
      "outputs": [
        {
          "name": "",
          "type": "address[]"
        }
      ],
      "payable": false,
      "stateMutability": "view",
      "type": "function"
    },
    {
      "constant": true,
      "inputs": [
        {
          "name": "walletUser",
          "type": "address"
        }
      ],
      "name": "getGameIdByWalletUser",
      "outputs": [
        {
          "name": "",
          "type": "uint256"
        }
      ],
      "payable": false,
      "stateMutability": "view",
      "type": "function"
    },
    {
      "constant": true,
      "inputs": [
        {
          "name": "walletUser",
          "type": "address"
        }
      ],
      "name": "getNumberByWalletUser",
      "outputs": [
        {
          "name": "",
          "type": "int256[]"
        }
      ],
      "payable": false,
      "stateMutability": "view",
      "type": "function"
    },
    {
      "constant": true,
      "inputs": [
        {
          "name": "walletUser",
          "type": "address"
        }
      ],
      "name": "getTicketNumber",
      "outputs": [
        {
          "name": "",
          "type": "uint256"
        }
      ],
      "payable": false,
      "stateMutability": "view",
      "type": "function"
    },
    {
      "constant": false,
      "inputs": [],
      "name": "kill",
      "outputs": [],
      "payable": false,
      "stateMutability": "nonpayable",
      "type": "function"
    }
  ],
  "bytecode": "0x608060405234801561001057600080fd5b50336000806101000a81548173ffffffffffffffffffffffffffffffffffffffff021916908373ffffffffffffffffffffffffffffffffffffffff16021790555033600160006101000a81548173ffffffffffffffffffffffffffffffffffffffff021916908373ffffffffffffffffffffffffffffffffffffffff1602179055506118bc806100a16000396000f30060806040526004361061008e576000357c0100000000000000000000000000000000000000000000000000000000900463ffffffff168063355df00b14610093578063384d2e0c146100ea57806341c0e1b5146101825780634f9da09f146101995780639e761bbb1461021b578063d0ebdbe714610288578063dfaf514f146102cb578063fe8e77c71461053e575b600080fd5b34801561009f57600080fd5b506100d4600480360381019080803573ffffffffffffffffffffffffffffffffffffffff169060200190929190505050610595565b6040518082815260200191505060405180910390f35b3480156100f657600080fd5b5061012b600480360381019080803573ffffffffffffffffffffffffffffffffffffffff1690602001909291905050506105e1565b6040518080602001828103825283818151815260200191508051906020019060200280838360005b8381101561016e578082015181840152602081019050610153565b505050509050019250505060405180910390f35b34801561018e57600080fd5b5061019761067b565b005b3480156101a557600080fd5b506101c460048036038101908080359060200190929190505050610754565b6040518080602001828103825283818151815260200191508051906020019060200280838360005b838110156102075780820151818401526020810190506101ec565b505050509050019250505060405180910390f35b34801561022757600080fd5b50610246600480360381019080803590602001909291905050506107f5565b604051808273ffffffffffffffffffffffffffffffffffffffff1673ffffffffffffffffffffffffffffffffffffffff16815260200191505060405180910390f35b34801561029457600080fd5b506102c9600480360381019080803573ffffffffffffffffffffffffffffffffffffffff16906020019092919050505061082a565b005b61053c600480360381019080803573ffffffffffffffffffffffffffffffffffffffff169060200190929190803573ffffffffffffffffffffffffffffffffffffffff169060200190929190803573ffffffffffffffffffffffffffffffffffffffff169060200190929190803573ffffffffffffffffffffffffffffffffffffffff16906020019092919080359060200190820180359060200190808060200260200160405190810160405280939291908181526020018383602002808284378201915050505050509192919290803590602001908201803590602001908080601f016020809104026020016040519081016040528093929190818152602001838380828437820191505050505050919291929080359060200190929190803590602001908201803590602001908080601f016020809104026020016040519081016040528093929190818152602001838380828437820191505050505050919291929080359060200190929190803590602001908201803590602001908080601f016020809104026020016040519081016040528093929190818152602001838380828437820191505050505050919291929080359060200190929190803590602001908201803590602001908080601f0160208091040260200160405190810160405280939291908181526020018383808284378201915050505050509192919290803590602001909291908035906020019092919080359060200190929190803590602001908201803590602001908080601f016020809104026020016040519081016040528093929190818152602001838380828437820191505050505050919291929050505061090d565b005b34801561054a57600080fd5b5061057f600480360381019080803573ffffffffffffffffffffffffffffffffffffffff1690602001909291905050506116aa565b6040518082815260200191505060405180910390f35b6000600760008373ffffffffffffffffffffffffffffffffffffffff1673ffffffffffffffffffffffffffffffffffffffff168152602001908152602001600020600801549050919050565b6060600760008373ffffffffffffffffffffffffffffffffffffffff1673ffffffffffffffffffffffffffffffffffffffff16815260200190815260200160002060040180548060200260200160405190810160405280929190818152602001828054801561066f57602002820191906000526020600020905b81548152602001906001019080831161065b575b50505050509050919050565b3373ffffffffffffffffffffffffffffffffffffffff166000809054906101000a900473ffffffffffffffffffffffffffffffffffffffff1673ffffffffffffffffffffffffffffffffffffffff1614151561071a576040517f08c379a0000000000000000000000000000000000000000000000000000000008152600401808060200182810382526000815260200160200191505060405180910390fd5b6000809054906101000a900473ffffffffffffffffffffffffffffffffffffffff1673ffffffffffffffffffffffffffffffffffffffff16ff5b6060600660008381526020019081526020016000208054806020026020016040519081016040528092919081815260200182805480156107e957602002820191906000526020600020905b8160009054906101000a900473ffffffffffffffffffffffffffffffffffffffff1673ffffffffffffffffffffffffffffffffffffffff168152602001906001019080831161079f575b50505050509050919050565b60028160048110151561080457fe5b016000915054906101000a900473ffffffffffffffffffffffffffffffffffffffff1681565b3373ffffffffffffffffffffffffffffffffffffffff166000809054906101000a900473ffffffffffffffffffffffffffffffffffffffff1673ffffffffffffffffffffffffffffffffffffffff161415156108c9576040517f08c379a0000000000000000000000000000000000000000000000000000000008152600401808060200182810382526000815260200160200191505060405180910390fd5b80600160006101000a81548173ffffffffffffffffffffffffffffffffffffffff021916908373ffffffffffffffffffffffffffffffffffffffff16021790555050565b3373ffffffffffffffffffffffffffffffffffffffff166000809054906101000a900473ffffffffffffffffffffffffffffffffffffffff1673ffffffffffffffffffffffffffffffffffffffff1614806109b557503373ffffffffffffffffffffffffffffffffffffffff16600160009054906101000a900473ffffffffffffffffffffffffffffffffffffffff1673ffffffffffffffffffffffffffffffffffffffff16145b1515610a04576040517f08c379a0000000000000000000000000000000000000000000000000000000008152600401808060200182810382526000815260200160200191505060405180910390fd5b6000341415610a56576040517f08c379a0000000000000000000000000000000000000000000000000000000008152600401808060200182810382526000815260200160200191505060405180910390fd5b8f60026000600481101515610a6757fe5b0160006101000a81548173ffffffffffffffffffffffffffffffffffffffff021916908373ffffffffffffffffffffffffffffffffffffffff1602179055508e60026001600481101515610ab757fe5b0160006101000a81548173ffffffffffffffffffffffffffffffffffffffff021916908373ffffffffffffffffffffffffffffffffffffffff1602179055508d600280600481101515610b0657fe5b0160006101000a81548173ffffffffffffffffffffffffffffffffffffffff021916908373ffffffffffffffffffffffffffffffffffffffff1602179055508c60026003600481101515610b5657fe5b0160006101000a81548173ffffffffffffffffffffffffffffffffffffffff021916908373ffffffffffffffffffffffffffffffffffffffff1602179055506006600084815260200190815260200160002060026000600481101515610bb857fe5b0160009054906101000a900473ffffffffffffffffffffffffffffffffffffffff1690806001815401808255809150509060018203906000526020600020016000909192909190916101000a81548173ffffffffffffffffffffffffffffffffffffffff021916908373ffffffffffffffffffffffffffffffffffffffff1602179055505060026000600481101515610c4d57fe5b0160009054906101000a900473ffffffffffffffffffffffffffffffffffffffff166007600060026000600481101515610c8357fe5b0160009054906101000a900473ffffffffffffffffffffffffffffffffffffffff1673ffffffffffffffffffffffffffffffffffffffff1673ffffffffffffffffffffffffffffffffffffffff16815260200190815260200160002060000160006101000a81548173ffffffffffffffffffffffffffffffffffffffff021916908373ffffffffffffffffffffffffffffffffffffffff1602179055508b6007600060026000600481101515610d3557fe5b0160009054906101000a900473ffffffffffffffffffffffffffffffffffffffff1673ffffffffffffffffffffffffffffffffffffffff1673ffffffffffffffffffffffffffffffffffffffff1681526020019081526020016000206004019080519060200190610da79291906116f9565b508e6007600060026000600481101515610dbd57fe5b0160009054906101000a900473ffffffffffffffffffffffffffffffffffffffff1673ffffffffffffffffffffffffffffffffffffffff1673ffffffffffffffffffffffffffffffffffffffff16815260200190815260200160002060010160006101000a81548173ffffffffffffffffffffffffffffffffffffffff021916908373ffffffffffffffffffffffffffffffffffffffff1602179055508d6007600060026000600481101515610e6f57fe5b0160009054906101000a900473ffffffffffffffffffffffffffffffffffffffff1673ffffffffffffffffffffffffffffffffffffffff1673ffffffffffffffffffffffffffffffffffffffff16815260200190815260200160002060020160006101000a81548173ffffffffffffffffffffffffffffffffffffffff021916908373ffffffffffffffffffffffffffffffffffffffff1602179055508c6007600060026000600481101515610f2157fe5b0160009054906101000a900473ffffffffffffffffffffffffffffffffffffffff1673ffffffffffffffffffffffffffffffffffffffff1673ffffffffffffffffffffffffffffffffffffffff16815260200190815260200160002060030160006101000a81548173ffffffffffffffffffffffffffffffffffffffff021916908373ffffffffffffffffffffffffffffffffffffffff16021790555060006007600060026000600481101515610fd457fe5b0160009054906101000a900473ffffffffffffffffffffffffffffffffffffffff1673ffffffffffffffffffffffffffffffffffffffff1673ffffffffffffffffffffffffffffffffffffffff168152602001908152602001600020600901819055506000600760006002600060048110151561104d57fe5b0160009054906101000a900473ffffffffffffffffffffffffffffffffffffffff1673ffffffffffffffffffffffffffffffffffffffff1673ffffffffffffffffffffffffffffffffffffffff168152602001908152602001600020600a01819055508a60076000600260006004811015156110c557fe5b0160009054906101000a900473ffffffffffffffffffffffffffffffffffffffff1673ffffffffffffffffffffffffffffffffffffffff1673ffffffffffffffffffffffffffffffffffffffff168152602001908152602001600020600b019080519060200190611137929190611746565b5088600760006002600060048110151561114d57fe5b0160009054906101000a900473ffffffffffffffffffffffffffffffffffffffff1673ffffffffffffffffffffffffffffffffffffffff1673ffffffffffffffffffffffffffffffffffffffff16815260200190815260200160002060050190805190602001906111bf929190611746565b508660076000600260006004811015156111d557fe5b0160009054906101000a900473ffffffffffffffffffffffffffffffffffffffff1673ffffffffffffffffffffffffffffffffffffffff1673ffffffffffffffffffffffffffffffffffffffff1681526020019081526020016000206006019080519060200190611247929190611746565b5084600760006002600060048110151561125d57fe5b0160009054906101000a900473ffffffffffffffffffffffffffffffffffffffff1673ffffffffffffffffffffffffffffffffffffffff1673ffffffffffffffffffffffffffffffffffffffff16815260200190815260200160002060070190805190602001906112cf929190611746565b508960076000600260006004811015156112e557fe5b0160009054906101000a900473ffffffffffffffffffffffffffffffffffffffff1673ffffffffffffffffffffffffffffffffffffffff1673ffffffffffffffffffffffffffffffffffffffff1681526020019081526020016000206008018190555060206040519081016040528084815250600760006002600060048110151561136c57fe5b0160009054906101000a900473ffffffffffffffffffffffffffffffffffffffff1673ffffffffffffffffffffffffffffffffffffffff1673ffffffffffffffffffffffffffffffffffffffff168152602001908152602001600020600c0160008201518160000155905050604080519081016040528083815260200182815250600760006002600060048110151561140157fe5b0160009054906101000a900473ffffffffffffffffffffffffffffffffffffffff1673ffffffffffffffffffffffffffffffffffffffff1673ffffffffffffffffffffffffffffffffffffffff168152602001908152602001600020600d016000820151816000015560208201518160010190805190602001906114869291906117c6565b509050508e73ffffffffffffffffffffffffffffffffffffffff166108fc60648a34028115156114b257fe5b049081150290604051600060405180830381858888f193505050501580156114de573d6000803e3d6000fd5b508d73ffffffffffffffffffffffffffffffffffffffff166108fc606488340281151561150757fe5b049081150290604051600060405180830381858888f19350505050158015611533573d6000803e3d6000fd5b508c73ffffffffffffffffffffffffffffffffffffffff166108fc606486340281151561155c57fe5b049081150290604051600060405180830381858888f19350505050158015611588573d6000803e3d6000fd5b507fd02df29a61c1fd67b724dad32ff5e025262d8f29b7e14e0f62142face1548efb60076000600260006004811015156115be57fe5b0160009054906101000a900473ffffffffffffffffffffffffffffffffffffffff1673ffffffffffffffffffffffffffffffffffffffff1673ffffffffffffffffffffffffffffffffffffffff16815260200190815260200160002060000160009054906101000a900473ffffffffffffffffffffffffffffffffffffffff16434340604051808473ffffffffffffffffffffffffffffffffffffffff1673ffffffffffffffffffffffffffffffffffffffff1681526020018381526020018260001916600019168152602001935050505060405180910390a150505050505050505050505050505050565b6000600760008373ffffffffffffffffffffffffffffffffffffffff1673ffffffffffffffffffffffffffffffffffffffff168152602001908152602001600020600d01600001549050919050565b828054828255906000526020600020908101928215611735579160200282015b82811115611734578251825591602001919060010190611719565b5b5090506117429190611846565b5090565b828054600181600116156101000203166002900490600052602060002090601f016020900481019282601f1061178757805160ff19168380011785556117b5565b828001600101855582156117b5579182015b828111156117b4578251825591602001919060010190611799565b5b5090506117c2919061186b565b5090565b828054600181600116156101000203166002900490600052602060002090601f016020900481019282601f1061180757805160ff1916838001178555611835565b82800160010185558215611835579182015b82811115611834578251825591602001919060010190611819565b5b509050611842919061186b565b5090565b61186891905b8082111561186457600081600090555060010161184c565b5090565b90565b61188d91905b80821115611889576000816000905550600101611871565b5090565b905600a165627a7a72305820031cb10895a91dc13d724043d7871c7ea9f8781885ebb3912d83d7b892aa0ec90029",
  "source": "pragma solidity ^0.4.24;\r\n\r\ncontract cryptomillionsGame002\r\n{\r\n    address owner;\r\n    address manager; \r\n\r\n    event RegisterEvent(\r\n        address userAccount,\r\n        uint256 block_number,\r\n        bytes32 block_hash\r\n    );\r\n\r\n    event UpdateTicketAmountEvent(\r\n        address userAccount,\r\n        uint256 block_number,\r\n        bytes32 block_hash\r\n    );\r\n\r\n    address[4] public beneficiaryList;\r\n    \r\n    struct Game {\r\n        uint id_game;\r\n        string  game_name;\r\n    }\r\n\r\n    struct Sorteo {\r\n        int256 id_sorteo;\r\n    }\r\n\r\n    struct Register  {\r\n        address account;\r\n        address walletFundation;\r\n        address walletAdministration;\r\n        address walletBag;\r\n        int256[] numbers;\r\n        string amount_to_foundation;\r\n        string amount_to_administration;\r\n        string amount_to_bag;\r\n        uint ticketNumber;\r\n        uint created_at;\r\n        uint updated_at;\r\n        string total;\r\n        Sorteo sorteo;\r\n        Game game;\r\n    }\r\n\r\n    mapping(int256 => address[]) indexMapping;\r\n    \r\n    mapping(address => Register) registers;\r\n\r\n    mapping (address => uint256) internal balances;\r\n    \r\n    constructor() public\r\n    {\r\n        owner = msg.sender;\r\n        manager = msg.sender;\r\n    }\r\n\r\n    function registerBuyTicket(\r\n        address walletUser, address walletFoundation, address walletAdministration, address walletBag, int256[] numbers,\r\n        string memory total, uint ticketNumber, string amount_to_foundation, uint256 percentFoundation,\r\n        string amount_to_administration, uint256 percentAdministration, string amount_to_bag, uint256 percentBag,\r\n        int256 id_sorteo, uint id_game, string memory game_name) public payable onlyManagerOrOwner\r\n    {\r\n        if(msg.value == 0) revert(\"\");\r\n        \r\n        beneficiaryList[0] = walletUser;\r\n        beneficiaryList[1] = walletFoundation;\r\n        beneficiaryList[2] = walletAdministration;\r\n        beneficiaryList[3] = walletBag;\r\n\r\n        indexMapping[id_sorteo].push(beneficiaryList[0]);           \r\n        registers[beneficiaryList[0]].account = beneficiaryList[0];\r\n        registers[beneficiaryList[0]].numbers = numbers;\r\n        registers[beneficiaryList[0]].walletFundation = walletFoundation;\r\n        registers[beneficiaryList[0]].walletAdministration = walletAdministration;\r\n        registers[beneficiaryList[0]].walletBag = walletBag;\r\n        registers[beneficiaryList[0]].created_at = 0;\r\n        registers[beneficiaryList[0]].updated_at = 0;\r\n        registers[beneficiaryList[0]].total = total; \r\n        registers[beneficiaryList[0]].amount_to_foundation = amount_to_foundation;\r\n        registers[beneficiaryList[0]].amount_to_administration = amount_to_administration;\r\n        registers[beneficiaryList[0]].amount_to_bag = amount_to_bag;\r\n        registers[beneficiaryList[0]].ticketNumber = ticketNumber;\r\n        registers[beneficiaryList[0]].sorteo = Sorteo({id_sorteo : id_sorteo });\r\n        registers[beneficiaryList[0]].game = Game({id_game : id_game, game_name : game_name});\r\n        \r\n        walletFoundation.transfer(msg.value * percentFoundation / 100);\r\n        walletAdministration.transfer(msg.value * percentAdministration / 100);\r\n        walletBag.transfer(msg.value * percentBag / 100);\r\n        \r\n        emit RegisterEvent(registers[beneficiaryList[0]].account, block.number, blockhash(block.number));\r\n    }\r\n    \r\n    function sub(uint256 a, uint256 b) internal pure returns (uint256) {\r\n        assert(b <= a);\r\n        return a - b;\r\n    }\r\n\r\n    function add(uint256 a, uint256 b) internal pure returns (uint256) {\r\n        uint256 c = a + b;\r\n        assert(c >= a);\r\n        return c;\r\n    }\r\n\r\n    modifier onlyManagerOrOwner() {\r\n        require(owner == msg.sender || manager == msg.sender, \"\");\r\n        _;\r\n    }\r\n    \r\n    function setManager(address _manager) public onlyOwner {\r\n        manager = _manager;\r\n    }\r\n    \r\n    function getAddressByIdSorteo(int256 id_sorteo) public view returns (address[] memory) {\r\n        return indexMapping[id_sorteo];\r\n    }\r\n    \r\n    function getGameIdByWalletUser(address walletUser) public view returns (uint) {\r\n        return registers[walletUser].game.id_game;\r\n    }\r\n    \r\n    function getNumberByWalletUser(address walletUser) public view returns (int256[] memory){\r\n        return  registers[walletUser].numbers;\r\n    }\r\n\r\n    function getTicketNumber(address walletUser) public view returns(uint) {\r\n        return  registers[walletUser].ticketNumber;\r\n    }\r\n    \r\n    function kill() public onlyOwner {\r\n        selfdestruct(owner);\r\n    }\r\n\r\n    modifier onlyOwner() {\r\n        require(owner == msg.sender, \"\");\r\n        _;\r\n    }\r\n}",
  "sourcePath": "C:\\Users\\BRevolution\\Documents\\SC_Production\\cryptomillions_SC\\compile_and_deploy\\cryptomillions_truffle\\contracts\\cryptomillionsGame002.sol",
  "compiler": {
    "name": "solc",
    "version": "0.4.24+commit.e67f0147.Emscripten.clang"
  },
  "schemaVersion": "2.0.1",
  "updatedAt": "2019-03-09T00:16:34.778Z"
}